:100000000C942A000C9447000C9447000C94470071
:100010000C9447000C9447000C9447000C94470044
:100020000C9447000C9447000C948A060C94E80644
:100030000C9447000C9447000C9447000C94470024
:100040000C9447000C9447000C9447000C94470014
:100050000C94470011241FBECFE5D8E0DEBFCDBF12
:1000600014E0A0E6B0E0E6EEF0E102C005900D92EB
:10007000A232B107D9F714E0A2E2B4E001C01D92A8
:10008000AE32B107E1F70E9449000C9471080C945C
:100090000000DF93CF93CDB7DEB7E7970FB6F894A4
:1000A000DEBF0FBECDBF83E060E040E00E940F03E3
:1000B00083E061E041E00E940F0381E060E041E005
:1000C0000E940F030E94B5070E940C060E94E905DA
:1000D0000E94FA011D821C821B821A82198280E60C
:1000E00090E00E94240847C088E790E00E9424081E
:1000F000CE014A960E944D081B8222C08B81882F18
:1001000090E0880F991F880F991F9C01220F331FC1
:10011000220F331F820F931F9C012F563D4FCE019C
:100120004A96B9010E94A801882339F487E990E032
:100130000E94240881E0898306C08B818F5F8B83B6
:100140008B818A30D8F28981813041F08D81823073
:1001500028F48EEA90E00E9424080AC08D81823043
:1001600038F08FEC90E00E9424080E940602FFCF36
:100170008D818F5F8D838981813009F43EC08D81AF
:10018000833008F4B1CF39C080E091E00E942408A8
:10019000CE0106960E944D088B81882F90E0880F33
:1001A000991F880F991F9C01220F331F220F331FA5
:1001B000820F931F9C01275A3C4FCE014A96B901EA
:1001C0000E94A801882339F481E291E00E9424086A
:1001D00081E08A830FC08C81823028F484E391E02F
:1001E0000E94240807C08EE391E00E9424080E9428
:1001F0000602FFCF8C818F5F8C838A81813019F05A
:100200008C81833008F20E9429018BE691E00E94E4
:100210002408CE018E960E944D08CE018E960E9433
:10022000F0078EA50E9450018FE791E00E942408FC
:10023000CE01C3960E944D08CE01C3960E94F007DE
:1002400004C0CE01C3960E940A088BA98937C9F75A
:10025000DACFDF93CF93CDB7DEB78CEA91E00E947F
:1002600024088BEB91E00E9424088EEC91E00E9420
:1002700024088FED91E00E94240881EF91E00E9414
:10028000240889E092E00E94240881E292E00E9422
:10029000240882E392E00E942408CF91DF91089520
:1002A000DF93CF930F92CDB7DEB7898389818133F6
:1002B00039F40E94010684E492E00E94240844C0BC
:1002C0008981823351F481E060E041E00E940104C1
:1002D00080E592E00E94240837C08981833351F47D
:1002E00081E060E040E00E94010487E592E00E9426
:1002F00024082AC08981843341F48EE60E941A06BC
:100300008FE592E00E9424081FC08981853341F463
:1003100084EB0E941A068EE692E00E94240814C024
:100320008981863341F480E00E941A068DE792E0CD
:100330000E94240809C08981873331F40E94F605A0
:1003400085E892E00E9424080F90CF91DF910895F4
:10035000DF93CF93CDB7DEB727970FB6F894DEBF04
:100360000FBECDBF9C838B837E836D831A821982DF
:100370001AC08981282F30E08B819C81FC01E20F1B
:10038000F31F40818981282F30E08D819E81FC01FF
:10039000E20FF31F8081481719F081E08A8319C0AA
:1003A00089818F5F89838981282F30E08B819C81AF
:1003B000FC01E20FF31F8081882359F08981282FE7
:1003C00030E08D819E81FC01E20FF31F8081882344
:1003D00081F68A81882311F41F8202C081E08F8315
:1003E0008F8127960FB6F894DEBF0FBECDBFCF9199
:1003F000DF910895DF93CF93CDB7DEB782E060E061
:1004000041E00E940F03CF91DF910895DF93CF93D6
:10041000CDB7DEB782E060E041E00E940104CF91F9
:10042000DF910895DF93CF93CDB7DEB782E060E030
:1004300040E00E940104CF91DF910895DF93CF93B4
:10044000CDB7DEB782E060E00E94F304CF91DF9188
:100450000895DF93CF9300D000D0CDB7DEB7898366
:100460006A838981282F30E03C832B838B819C8198
:100470008130910521F12B813C81223031052CF412
:100480008B819C81009761F046C02B813C8122309A
:10049000310521F18B819C818330910571F13BC045
:1004A0008A81813029F4EAE3F0E08FEF808333C062
:1004B0008A81882381F5EAE3F0E010822CC08A81EA
:1004C000813029F4E7E3F0E08FEF808324C08A8154
:1004D000882309F5E7E3F0E010821DC08A818130AE
:1004E00029F4E4E3F0E08FEF808315C08A8188234C
:1004F00091F4E4E3F0E010820EC08A81813029F4A7
:10050000E1E3F0E08FEF808306C08A81882319F44D
:10051000E1E3F0E010820F900F900F900F90CF91D9
:10052000DF910895DF93CF9300D000D0CDB7DEB731
:1005300089836A838981282F30E03C832B838B81D8
:100540009C818130910549F12B813C81223031051C
:100550002CF48B819C81009761F05AC02B813C81E7
:100560002230310571F18B819C8183309105E9F155
:100570004FC08A81813029F4EBE3F0E08FEF808374
:1005800047C08A81882321F4EBE3F0E0108240C069
:10059000EBE3F0E08A8180833BC08A81813029F4DB
:1005A000E8E3F0E08FEF808333C08A81882321F471
:1005B000E8E3F0E010822CC0E8E3F0E08A81808379
:1005C00027C08A81813029F4E5E3F0E08FEF808352
:1005D0001FC08A81882321F4E5E3F0E0108218C06F
:1005E000E5E3F0E08A81808313C08A81813029F4B9
:1005F000E2E3F0E08FEF80830BC08A81882321F44F
:10060000E2E3F0E0108204C0E2E3F0E08A8180835C
:100610000F900F900F900F90CF91DF910895DF937F
:10062000CF9300D000D00F92CDB7DEB789836A8315
:100630004B838981282F30E03D832C838C819D81E1
:100640008130910509F447C02C813D81223031056C
:100650002CF48C819D81009771F0CBC02C813D8161
:100660002230310509F467C08C819D81833091056A
:1006700009F491C0BEC08B818130A1F4AAE3B0E03F
:10068000EAE3F0E08081482F8A81282F30E081E082
:1006900090E0022E02C0880F991F0A94E2F7842B83
:1006A0008C93A7C08B81882309F0A3C0AAE3B0E094
:1006B000EAE3F0E08081482F8A81282F30E081E052
:1006C00090E0022E02C0880F991F0A94E2F78095ED
:1006D00084238C938EC08B818130A1F4A7E3B0E09A
:1006E000E7E3F0E08081482F8A81282F30E081E025
:1006F00090E0022E02C0880F991F0A94E2F7842B23
:100700008C9377C08B81882309F073C0A7E3B0E096
:10071000E7E3F0E08081482F8A81282F30E081E0F4
:1007200090E0022E02C0880F991F0A94E2F780958C
:1007300084238C935EC08B818130A1F4A4E3B0E06C
:10074000E4E3F0E08081482F8A81282F30E081E0C7
:1007500090E0022E02C0880F991F0A94E2F7842BC2
:100760008C9347C08B81882309F043C0A4E3B0E099
:10077000E4E3F0E08081482F8A81282F30E081E097
:1007800090E0022E02C0880F991F0A94E2F780952C
:1007900084238C932EC08B818130A1F4A1E3B0E03F
:1007A000E1E3F0E08081482F8A81282F30E081E06A
:1007B00090E0022E02C0880F991F0A94E2F7842B62
:1007C0008C9317C08B818823A1F4A1E3B0E0E1E30F
:1007D000F0E08081482F8A81282F30E081E090E08E
:1007E000022E02C0880F991F0A94E2F78095842395
:1007F0008C930F900F900F900F900F90CF91DF91EF
:100800000895DF93CF9300D000D00F92CDB7DEB71D
:1008100089836A834B838981282F30E03D832C8331
:100820008C819D818130910509F447C02C813D81E7
:10083000223031052CF48C819D81009771F0CBC062
:100840002C813D812230310509F467C08C819D8166
:100850008330910509F491C0BEC08B818130A1F431
:10086000ABE3B0E0EBE3F0E08081482F8A81282FF2
:1008700030E081E090E0022E02C0880F991F0A94B8
:10088000E2F7842B8C93A7C08B81882309F0A3C047
:10089000ABE3B0E0EBE3F0E08081482F8A81282FC2
:1008A00030E081E090E0022E02C0880F991F0A9488
:1008B000E2F7809584238C938EC08B818130A1F4E4
:1008C000A8E3B0E0E8E3F0E08081482F8A81282F98
:1008D00030E081E090E0022E02C0880F991F0A9458
:1008E000E2F7842B8C9377C08B81882309F073C047
:1008F000A8E3B0E0E8E3F0E08081482F8A81282F68
:1009000030E081E090E0022E02C0880F991F0A9427
:10091000E2F7809584238C935EC08B818130A1F4B3
:10092000A5E3B0E0E5E3F0E08081482F8A81282F3D
:1009300030E081E090E0022E02C0880F991F0A94F7
:10094000E2F7842B8C9347C08B81882309F043C046
:10095000A5E3B0E0E5E3F0E08081482F8A81282F0D
:1009600030E081E090E0022E02C0880F991F0A94C7
:10097000E2F7809584238C932EC08B818130A1F483
:10098000A2E3B0E0E2E3F0E08081482F8A81282FE3
:1009900030E081E090E0022E02C0880F991F0A9497
:1009A000E2F7842B8C9317C08B818823A1F4A2E3F8
:1009B000B0E0E2E3F0E08081482F8A81282F30E028
:1009C00081E090E0022E02C0880F991F0A94E2F79E
:1009D000809584238C930F900F900F900F900F9021
:1009E000CF91DF910895DF93CF9300D000D0CDB7A2
:1009F000DEB789836A838981282F30E03C832B838B
:100A00008B819C818130910549F12B813C81223081
:100A100031052CF48B819C81009761F05AC02B81A9
:100A20003C812230310571F18B819C8183309105AD
:100A3000E9F14FC0ABE3B0E0EBE3F0E08081482F99
:100A40008A81282F30E081E090E0022E02C0880FDA
:100A5000991F0A94E2F784278C933BC0A8E3B0E087
:100A6000E8E3F0E08081482F8A81282F30E081E0A0
:100A700090E0022E02C0880F991F0A94E2F78427A3
:100A80008C9327C0A5E3B0E0E5E3F0E08081482F38
:100A90008A81282F30E081E090E0022E02C0880F8A
:100AA000991F0A94E2F784278C9313C0A2E3B0E065
:100AB000E2E3F0E08081482F8A81282F30E081E056
:100AC00090E0022E02C0880F991F0A94E2F7842753
:100AD0008C930F900F900F900F90CF91DF9108950E
:100AE000DF93CF9300D000D00F92CDB7DEB78A83CB
:100AF0006B838A81282F30E03D832C834C815D817C
:100B00004130510541F18C819D818230910534F451
:100B10002C813D812115310561F052C04C815D81F0
:100B20004230510551F18C819D8183309105B9F19D
:100B300047C0E9E3F0E08081282F30E08B81882FE7
:100B400090E0A90102C0559547958A95E2F7CA0140
:100B50008170898335C0E6E3F0E08081282F30E0A2
:100B60008B81882F90E0A90102C0559547958A9501
:100B7000E2F7CA018170898323C0E3E3F0E080815A
:100B8000282F30E08B81882F90E0A90102C0559575
:100B900047958A95E2F7CA018170898311C0E0E325
:100BA000F0E08081282F30E08B81882F90E0A90130
:100BB00002C0559547958A95E2F7CA0181708983ED
:100BC00089810F900F900F900F900F90CF91DF9130
:100BD0000895DF93CF93CDB7DEB70E94460780ED2F
:100BE00097E00E94A307CF91DF910895DF93CF9301
:100BF000CDB7DEB78FEC97E00E949107CF91DF91E0
:100C00000895DF93CF93CDB7DEB787EE93E00E94D0
:100C10009107CF91DF910895DF93CF93CDB7DEB7E2
:100C200081E063E041E00E940F030E942706CF911C
:100C3000DF910895DF93CF930F92CDB7DEB789830D
:100C400089810E945F060F90CF91DF910895DF9315
:100C5000CF93CDB7DEB7A3E5B0E0E3E5F0E0808168
:100C600080648C93A3E5B0E0E3E5F0E080818860E8
:100C70008C93A3E5B0E0E3E5F0E080818F7E8C9378
:100C8000A3E5B0E0E3E5F0E0808180628C93A3E52A
:100C9000B0E0E3E5F0E080818E7F8C93A3E5B0E0E7
:100CA000E3E5F0E0808182608C93A3E5B0E0E3E5CA
:100CB000F0E080818B7F8C93CF91DF910895DF935B
:100CC000CF930F92CDB7DEB78983ECE5F0E0898151
:100CD00080830F90CF91DF910895DF93CF9300D061
:100CE0000F92CDB7DEB79B838A8319828A819B815D
:100CF000009739F08A819B8190932304809322048A
:100D000002C081E0898389810F900F900F90CF916D
:100D1000DF9108951F920F920FB60F9211242F9317
:100D20003F934F935F936F937F938F939F93AF9373
:100D3000BF93EF93FF93DF93CF93CDB7DEB780914F
:100D4000240490912504A0912604B09127040196D3
:100D5000A11DB11D8093240490932504A093260423
:100D6000B09327048091240490912504A091260437
:100D7000B091270484309105A105B105B1F4E2E5F5
:100D8000F0E010828091220490912304009729F0D2
:100D9000E0912204F091230409951092240410920A
:100DA00025041092260410922704CF91DF91FF9121
:100DB000EF91BF91AF919F918F917F916F915F91D3
:100DC0004F913F912F910F900FBE0F901F9018954C
:100DD0001F920F920FB60F9211242F933F934F93B0
:100DE0005F936F937F938F939F93AF93BF93EF9393
:100DF000FF93DF93CF93CDB7DEB780912804909116
:100E00002904A0912A04B0912B040196A11DB11DC3
:100E10008093280490932904A0932A04B0932B0470
:100E20008091280490912904A0912A04B0912B0468
:100E300084309105A105B105B1F4E2E5F0E010823E
:100E40008091220490912304009729F0E0912204DC
:100E5000F09123040995109228041092290410920D
:100E60002A0410922B04CF91DF91FF91EF91BF9153
:100E7000AF919F918F917F916F915F914F913F9132
:100E80002F910F900FBE0F901F901895DF93CF9367
:100E9000CDB7DEB783E065E041E00E940F03AFE429
:100EA000B0E0EFE4F0E080818F7B8C93AFE4B0E0C2
:100EB000EFE4F0E0808180688C93AFE4B0E0EFE491
:100EC000F0E080818E7F8C93AFE4B0E0EFE4F0E05F
:100ED000808182608C93AEE4B0E0EEE4F0E080814B
:100EE00088608C93AEE4B0E0EEE4F0E08081806155
:100EF0008C93AEE4B0E0EEE4F0E080818E7F8C93E2
:100F0000AEE4B0E0EEE4F0E0808182608C93AEE489
:100F1000B0E0EEE4F0E080818B7F8C93CF91DF91A5
:100F20000895DF93CF9300D0CDB7DEB79A8389833E
:100F3000EAE4F0E089819A81918380830F900F9099
:100F4000CF91DF910895DF93CF9300D0CDB7DEB777
:100F50009A838983E6E4F0E089819A819183808392
:100F60000F900F90CF91DF910895DF93CF930F9261
:100F7000CDB7DEB7E9E2F0E083E380838981806862
:100F80008983898188608983898182608983898155
:100F900084608983AAE2B0E0EAE2F0E080818B7F9E
:100FA0008C9389818F7E898389818F7D89838981D3
:100FB0008F7B8983AAE2B0E0EAE2F0E08081806181
:100FC0008C93AAE2B0E0EAE2F0E0808188608C9342
:100FD000E0E4F0E0898180830F90CF91DF91089564
:100FE000DF93CF930F92CDB7DEB78983EBE2F0E0CA
:100FF0008081829586958770882F90E081709070AF
:101000000097A1F3ECE2F0E0898180830F90CF910B
:10101000DF910895DF93CF9300D0CDB7DEB79A83E9
:101020008983EBE2F0E08081881F8827881F813068
:10103000C1F7ECE2F0E08081E981FA8180830F90D2
:101040000F90CF91DF910895DF93CF9300D00F924F
:10105000CDB7DEB79B838A8319820EC08981282F82
:1010600030E08A819B81FC01E20FF31F80810E94A6
:10107000F00789818F5F89838981282F30E08A81F9
:101080009B81FC01E20FF31F8081882339F70F90C9
:101090000F900F90CF91DF910895DF93CF9300D001
:1010A00000D0CDB7DEB79C838B831982CE01029628
:1010B0000E940A088981282F30E08B819C81FC01E5
:1010C000E20FF31F8A81808389818F5F89838A8100
:1010D0008A3061F70F900F900F900F90CF91DF91B2
:0610E0000895F894FFCF13
:1010E60057656C636F6D6520746F20536D61727404
:1010F600486F6D652E2E2E000D0A506C6561736566
:1011060020656E74657220796F757220555345524D
:101116004E414D453A20000D0A436F727265637465
:101126002055736572204E616D652E2E2E00577206
:101136006F6E672055736572204E616D652E2E2E7B
:101146002054727920616761696E200D0A2000576C
:10115600726F6E672055736572204E616D652C2027
:101166004E4F204D4F524520545249414C53202C4E
:1011760054525920544F2052455345540D0A2000CD
:101186000D0A506C6561736520656E746572207911
:101196006F75722050415353574F52443A200D0AEF
:1011A600000D0A436F727265637420506173737722
:1011B6006F72640054727920616761696E005772BC
:1011C6006F6E672050617373776F7264204E4F2085
:1011D6004D4F524520545249414C53202C5452599C
:1011E60020544F2052455345542000506C6561737E
:1011F6006520456E746572207461736B203A000D2C
:101206000A202A696620796F752077616E742074CA
:101216006F20646F20616E6F74686572206F7264F0
:101226006572207072657373207920000D0A5F5F06
:101236005F4D656E755F5F5F0D0A00312D436C6F04
:1012460073652074686520446F6F720D0A00322D35
:101256004F70656E20746865204C45440D0A003356
:101266002D436C6F736520746865204C45440D0AE8
:1012760000342D5475726E2046616E206F6E2053B9
:101286007065656420310D0A00352D5475726E2027
:1012960046616E204F4E20537065656420320D0AFC
:1012A60000362D5475726E2046616E204F46460DEF
:1012B6000A00372D4F70656E2074686520446F6F85
:1012C600720D0A00446F6F7220636C6F7365640061
:1012D6004C6564204F4E004C6564206F6666004680
:1012E600616E206F6E205370656564203100466123
:1012F6006E206F6E20537065656420320046616E05
:10130600204F666600446F6F72206F70656E65646D
:1013160000536172612041686D6564000000000041
:101326000000000000526F61612041796D616E001E
:10133600000000000000000000416C6161204D616A
:101346006764790000000000000000000052616E32
:101356006120486174656D00000000000000000017
:10136600004D6F68616D65642041686D65640000BD
:1013760000000000004C61696C6120546172656B6D
:1013860000000000000000000059617373696E20C0
:10139600456472697300000000000000004D616C36
:1013A600616B204D61686D6F756400000000000080
:1013B600004579616420454C2D53617965640000D0
:1013C60000000000004D61726961204D616764652F
:1013D600790000000000000000536172612041683E
:1013E6006D656400000000000000000000526F619F
:1013F600612041796D616E00000000000000000070
:1014060000416C6161204D61676479000000000055
:10141600000000000052616E6120486174656D0035
:101426000000000000000000004D6F68616D6564FB
:101436002041686D6564000000000000004C616991
:101446006C6120546172656B0000000000000000B2
:101456000059617373696E204564726973000000F8
:1014660000000000004D616C616B204D61686D6F7E
:101476007564000000000000004579616420454C59
:101486002D5361796564000000000000004D617213
:101496006961204D61676465790000000000000005
:0214A600000044
:00000001FF
