:100000000C942A000C943C000C943C000C943C0092
:100010000C943C000C943C000C943C000C943C0070
:100020000C943C000C943C000C943C000C943C0060
:100030000C943C000C943C000C943C000C943C0050
:100040000C943C000C943C000C943C000C943C0040
:100050000C943C0011241FBECFE5D8E0DEBFCDBF1D
:1000600010E0A0E6B0E001C01D92A236B107E1F7B2
:100070000E943E000C94BB040C940000DF93CF93CD
:100080000F92CDB7DEB783E060E040E00E945601FA
:1000900083E061E041E00E94560183E067E041E0D7
:1000A0000E9456010E944C04CE0101960E94A104B8
:1000B0008981813349F483E067E041E00E9448028E
:1000C0008EE40E948704F0CF8981823369F783E050
:1000D00067E040E00E94480286E40E948704E4CF83
:1000E000DF93CF9300D000D0CDB7DEB789836A838A
:1000F0008981282F30E03C832B838B819C81813048
:10010000910521F12B813C81223031052CF48B812A
:100110009C81009761F046C02B813C8122303105E3
:1001200021F18B819C818330910571F13BC08A81E3
:10013000813029F4EAE3F0E08FEF808333C08A81D5
:10014000882381F5EAE3F0E010822CC08A818130B7
:1001500029F4E7E3F0E08FEF808324C08A818823CD
:1001600009F5E7E3F0E010821DC08A81813029F4AF
:10017000E4E3F0E08FEF808315C08A81882391F457
:10018000E4E3F0E010820EC08A81813029F4E1E3DB
:10019000F0E08FEF808306C08A81882319F4E1E3C1
:1001A000F0E010820F900F900F900F90CF91DF91A1
:1001B0000895DF93CF9300D000D0CDB7DEB7898309
:1001C0006A838981282F30E03C832B838B819C813B
:1001D0008130910549F12B813C81223031052CF48D
:1001E0008B819C81009761F05AC02B813C81223029
:1001F000310571F18B819C8183309105E9F14FC00C
:100200008A81813029F4EBE3F0E08FEF808347C0EF
:100210008A81882321F4EBE3F0E0108240C0EBE315
:10022000F0E08A8180833BC08A81813029F4E8E351
:10023000F0E08FEF808333C08A81882321F4E8E3E4
:10024000F0E010822CC0E8E3F0E08A81808327C0D0
:100250008A81813029F4E5E3F0E08FEF80831FC0CD
:100260008A81882321F4E5E3F0E0108218C0E5E3F9
:10027000F0E08A81808313C08A81813029F4E2E32F
:10028000F0E08FEF80830BC08A81882321F4E2E3C2
:10029000F0E0108204C0E2E3F0E08A8180830F90F6
:1002A0000F900F900F90CF91DF910895DF93CF9330
:1002B00000D000D00F92CDB7DEB789836A834B831D
:1002C0008981282F30E03D832C838C819D81813072
:1002D000910509F447C02C813D81223031052CF471
:1002E0008C819D81009771F0CBC02C813D812230A3
:1002F000310509F467C08C819D818330910509F433
:1003000091C0BEC08B818130A1F4AAE3B0E0EAE3E2
:10031000F0E08081482F8A81282F30E081E090E052
:10032000022E02C0880F991F0A94E2F7842B8C9347
:10033000A7C08B81882309F0A3C0AAE3B0E0EAE359
:10034000F0E08081482F8A81282F30E081E090E022
:10035000022E02C0880F991F0A94E2F78095842329
:100360008C938EC08B818130A1F4A7E3B0E0E7E3EA
:10037000F0E08081482F8A81282F30E081E090E0F2
:10038000022E02C0880F991F0A94E2F7842B8C93E7
:1003900077C08B81882309F073C0A7E3B0E0E7E35F
:1003A000F0E08081482F8A81282F30E081E090E0C2
:1003B000022E02C0880F991F0A94E2F780958423C9
:1003C0008C935EC08B818130A1F4A4E3B0E0E4E3C0
:1003D000F0E08081482F8A81282F30E081E090E092
:1003E000022E02C0880F991F0A94E2F7842B8C9387
:1003F00047C08B81882309F043C0A4E3B0E0E4E365
:10040000F0E08081482F8A81282F30E081E090E061
:10041000022E02C0880F991F0A94E2F78095842368
:100420008C932EC08B818130A1F4A1E3B0E0E1E395
:10043000F0E08081482F8A81282F30E081E090E031
:10044000022E02C0880F991F0A94E2F7842B8C9326
:1004500017C08B818823A1F4A1E3B0E0E1E3F0E0D1
:100460008081482F8A81282F30E081E090E0022EA1
:1004700002C0880F991F0A94E2F7809584238C9319
:100480000F900F900F900F900F90CF91DF910895E4
:10049000DF93CF9300D000D00F92CDB7DEB7898322
:1004A0006A834B838981282F30E03D832C838C81A4
:1004B0009D818130910509F447C02C813D81223016
:1004C00031052CF48C819D81009771F0CBC02C817B
:1004D0003D812230310509F467C08C819D818330D4
:1004E000910509F491C0BEC08B818130A1F4ABE3CA
:1004F000B0E0EBE3F0E08081482F8A81282F30E0E4
:1005000081E090E0022E02C0880F991F0A94E2F762
:10051000842B8C93A7C08B81882309F0A3C0ABE305
:10052000B0E0EBE3F0E08081482F8A81282F30E0B3
:1005300081E090E0022E02C0880F991F0A94E2F732
:10054000809584238C938EC08B818130A1F4A8E3A5
:10055000B0E0E8E3F0E08081482F8A81282F30E086
:1005600081E090E0022E02C0880F991F0A94E2F702
:10057000842B8C9377C08B81882309F073C0A8E308
:10058000B0E0E8E3F0E08081482F8A81282F30E056
:1005900081E090E0022E02C0880F991F0A94E2F7D2
:1005A000809584238C935EC08B818130A1F4A5E378
:1005B000B0E0E5E3F0E08081482F8A81282F30E029
:1005C00081E090E0022E02C0880F991F0A94E2F7A2
:1005D000842B8C9347C08B81882309F043C0A5E30B
:1005E000B0E0E5E3F0E08081482F8A81282F30E0F9
:1005F00081E090E0022E02C0880F991F0A94E2F772
:10060000809584238C932EC08B818130A1F4A2E34A
:10061000B0E0E2E3F0E08081482F8A81282F30E0CB
:1006200081E090E0022E02C0880F991F0A94E2F741
:10063000842B8C9317C08B818823A1F4A2E3B0E0B4
:10064000E2E3F0E08081482F8A81282F30E081E0CA
:1006500090E0022E02C0880F991F0A94E2F780955D
:1006600084238C930F900F900F900F900F90CF9149
:10067000DF910895DF93CF9300D000D0CDB7DEB7E0
:1006800089836A838981282F30E03C832B838B8187
:100690009C818130910549F12B813C8122303105CB
:1006A0002CF48B819C81009761F05AC02B813C8196
:1006B0002230310571F18B819C8183309105E9F104
:1006C0004FC0ABE3B0E0EBE3F0E08081482F8A81DC
:1006D000282F30E081E090E0022E02C0880F991FA1
:1006E0000A94E2F784278C933BC0A8E3B0E0E8E3E8
:1006F000F0E08081482F8A81282F30E081E090E06F
:10070000022E02C0880F991F0A94E2F784278C9367
:1007100027C0A5E3B0E0E5E3F0E08081482F8A81BF
:10072000282F30E081E090E0022E02C0880F991F50
:100730000A94E2F784278C9313C0A2E3B0E0E2E3CB
:10074000F0E08081482F8A81282F30E081E090E01E
:10075000022E02C0880F991F0A94E2F784278C9317
:100760000F900F900F900F90CF91DF910895DF932E
:10077000CF9300D000D00F92CDB7DEB78A836B83C2
:100780008A81282F30E03D832C834C815D8141306C
:10079000510541F18C819D818230910534F42C8189
:1007A0003D812115310561F052C04C815D8142309F
:1007B000510551F18C819D8183309105B9F147C07C
:1007C000E9E3F0E08081282F30E08B81882F90E0F2
:1007D000A90102C0559547958A95E2F7CA01817033
:1007E000898335C0E6E3F0E08081282F30E08B81FB
:1007F000882F90E0A90102C0559547958A95E2F7A8
:10080000CA018170898323C0E3E3F0E08081282F4F
:1008100030E08B81882F90E0A90102C05595479563
:100820008A95E2F7CA018170898311C0E0E3F0E0A4
:100830008081282F30E08B81882F90E0A90102C0B1
:10084000559547958A95E2F7CA0181708983898118
:100850000F900F900F900F900F90CF91DF91089510
:10086000DF93CF93CDB7DEB7AFE5B0E0EFE5F0E0D3
:10087000808180688C93CF91DF910895DF93CF932F
:10088000CDB7DEB7AFE5B0E0EFE5F0E080818F7780
:100890008C93CF91DF910895DF93CF930F92CDB7D3
:1008A000DEB7E9E2F0E083E38083898180688983B1
:1008B0008981877F89838981826089838981846036
:1008C0008983AAE2B0E0EAE2F0E080818B7F8C933A
:1008D00089818061898389818062898389818F7B15
:1008E0008983AAE2B0E0EAE2F0E0808180618C9343
:1008F000AAE2B0E0EAE2F0E0808188608C93E0E474
:10090000F0E0898180830F90CF91DF910895DF938C
:10091000CF9300D0CDB7DEB78A83EBE2F0E08081E1
:100920008295869587708170898389818130E9F706
:10093000ECE2F0E08A8180830F900F90CF91DF91FD
:100940000895DF93CF9300D0CDB7DEB79A83898324
:10095000EBE2F0E08081881F8827881F8130C1F793
:10096000ECE2F0E08081E981FA8180830F900F90C2
:0A097000CF91DF910895F894FFCFB6
:00000001FF
